:100000000C942A000C9447000C9447000C94470071
:100010000C9447000C9447000C9447000C94470044
:100020000C9447000C9447000C9447000C94470034
:100030000C9447000C9447000C9447000C94470024
:100040000C9447000C9447000C9447000C94470014
:100050000C94470011241FBECFE5D8E0DEBFCDBF12
:1000600011E0A0E6B0E0ECE0FBE202C005900D92EA
:10007000AA38B107D9F711E0AAE8B1E001C01D9292
:10008000AB38B107E1F70E9464140C9484150C940A
:100090000000EF92FF920F931F937B018C0120E0F1
:1000A00030E040E05FE40E94F50388238CF0C80153
:1000B000B70120E030E040E05FE40E94C1010E940F
:1000C00055049B01AC01205030404040504806C0D0
:1000D000C801B7010E9455049B01AC01B901CA01D6
:1000E0001F910F91FF90EF900895A0E0B0E0EBE733
:1000F000F0E00C940815DC012B01FA019C91923080
:1001000008F439C1EB018881823008F433C194309E
:1001100069F4843009F02FC111969C91119789815F
:10012000981709F428C1A1E8B0E025C1843009F48A
:1001300021C18230A9F4923009F01DC19A01AD01AC
:1001400088E0EA010990AE01E90109929E0181501F
:10015000C1F7E201898111969C918923818308C1AD
:10016000923009F407C112962D903C901397EB0141
:100170008A819B811496AD90BD90CD90DC901797AD
:10018000EC80FD800E811F819101281B390BB90184
:1001900037FF04C066277727621B730B6032710537
:1001A0000CF061C0121613066CF537014801062EDB
:1001B00004C096948794779467940A94D2F721E0C8
:1001C00030E040E050E004C0220F331F441F551FB1
:1001D0006A95D2F721503040404050402E213F21B7
:1001E00040235123211531054105510521F021E01E
:1001F00030E040E050E079018A01E628F72808293C
:1002000019293CC0232BD1F1260E371E350146019A
:10021000062E04C096948794779467940A94D2F734
:1002200021E030E040E050E004C0220F331F441FC3
:10023000551F6A95D2F721503040404050402A2146
:100240003B214C215D21211531054105510521F04E
:1002500021E030E040E050E059016A01A628B728CB
:10026000C828D9280BC0821593052CF01C01AA249C
:10027000BB24650103C0EE24FF24870111969C91E5
:10028000D20111968C91981709F445C0992339F041
:10029000A80197012A193B094C095D0906C0A6016E
:1002A00095012E193F09400B510B57FD08C01182D3
:1002B0003382228224833583468357831DC081E0A5
:1002C00081833382228288279927DC01821B930B4A
:1002D000A40BB50B84839583A683B7830DC0220F2F
:1002E000331F441F551F24833583468357838281E0
:1002F000938101979383828324813581468157813D
:10030000DA01C9010197A109B1098F5F9F4FAF4F72
:10031000BF4328F30BC0918333822282EA0CFB1C7B
:100320000C1D1D1DE482F5820683178383E0808304
:10033000248135814681578157FF1AC0C901AA27F8
:1003400097FDA095BA2F81709070A070B0705695EF
:10035000479537952795822B932BA42BB52B848318
:100360009583A683B7838281938101969383828349
:10037000DF0101C0D201CD01CDB7DEB7E2E10C94BF
:100380002415A0E2B0E0E7ECF1E00C9414156983C9
:100390007A838B839C832D833E834F835887E9E048
:1003A000EE2EF12CEC0EFD1ECE010196B7010E943F
:1003B00046068E010F5E1F4FCE010596B8010E94C2
:1003C00046068A8991E089278A8BC701B801AE0168
:1003D000475E5F4F0E9475000E947105A096E6E09F
:1003E0000C943015A0E2B0E0E8EFF1E00C941415A5
:1003F00069837A838B839C832D833E834F835887C5
:10040000F9E0EF2EF12CEC0EFD1ECE010196B701A6
:100410000E9446068E010F5E1F4FCE010596B80161
:100420000E944606C701B801AE01475E5F4F0E94B9
:1004300075000E947105A096E6E00C943015A0E2CC
:10044000B0E0E5E2F2E00C94081569837A838B83CF
:100450009C832D833E834F835887CE010196BE0136
:10046000675F7F4F0E944606CE010596BE016F5E14
:100470007F4F0E9446069985923088F089898230A4
:10048000C8F0943019F4823051F404C0843029F457
:10049000923081F481E890E0C6C0923049F420E0C7
:1004A0009A858A89981321E02A87CE010996BBC0D4
:1004B000823049F420E09A858A89981321E02A8BBA
:1004C000CE014196B0C02D843E844F8458886D88FB
:1004D0007E888F88988CEE24FF248701AA24BB2471
:1004E000650140E050E060E070E0E0E0F0E0C10174
:1004F00081709070892BE9F0E60CF71C081D191D1E
:100500009A01AB012A0D3B1D4C1D5D1D80E090E062
:10051000A0E0B0E0E614F7040805190520F481E036
:1005200090E0A0E0B0E0BA01A901480F591F6A1F8E
:100530007B1FAA0CBB1CCC1CDD1C97FE08C081E0F5
:1005400090E0A0E0B0E0A82AB92ACA2ADB2A3196B6
:10055000E032F10549F0660C771C881C991C569412
:10056000479437942794C3CFFA85EA892B893C892D
:100570008B859C85280F391F2E5F3F4F17C0CA01FE
:1005800081709070892B61F016950795F794E79428
:1005900080E090E0A0E0B0E8E82AF92A0A2B1B2BC3
:1005A00076956795579547952F5F3F4F77FDE7CF36
:1005B0000CC0440F551F661F771F17FD4160EE0CDE
:1005C000FF1C001F111F21503040403090E05907A0
:1005D00090E0690790E4790760F32B8F3C8FDB0193
:1005E000CA018F779070A070B07080349105A1051A
:1005F000B10561F447FD0AC0E114F10401051105DC
:1006000029F0405C5F4F6F4F7F4F40781A8EFE1786
:1006100011F081E08A8F4D8F5E8F6F8F78A383E01A
:10062000898FCE0149960E947105A096E2E10C9453
:100630002415A8E1B0E0EFE1F3E00C941015698314
:100640007A838B839C832D833E834F835887B9E0C5
:10065000EB2EF12CEC0EFD1ECE010196B7010E948F
:1006600046068E010F5E1F4FCE010596B8010E940F
:1006700046062985223008F47EC03989323010F4CC
:10068000B8017CC08A859A8989278A87243011F02D
:10069000223031F4231709F06EC061E870E06EC0BB
:1006A000343039F41D861E861F86188A1C861B86E8
:1006B00004C0323021F484E08987B7015FC02B8504
:1006C0003C858B899C89281B390B3C872B87ED84C3
:1006D000FE840F851889AD88BE88CF88D88CEA142F
:1006E000FB040C051D0540F4EE0CFF1C001F111F40
:1006F000215030403C872B8720E030E040E050E044
:1007000080E090E0A0E0B0E460E070E0EA14FB0478
:100710000C051D0540F0282B392B4A2B5B2BEA18C2
:10072000FB080C091D09B695A79597958795EE0CC2
:10073000FF1C001F111F6F5F7F4F6F31710531F775
:10074000DA01C9018F779070A070B0708034910584
:10075000A105B10561F427FD0AC0E114F10401050A
:10076000110529F0205C3F4F4F4F5F4F20782D87B8
:100770003E874F87588BBE01675F7F4FCB010E943A
:1007800071056896EAE00C942C15A8E1B0E0EBEC5A
:10079000F3E00C94141569837A838B839C832D83F7
:1007A0003E834F83588789E0E82EF12CEC0EFD1E26
:1007B000CE010196B7010E9446068E010F5E1F4FC3
:1007C000CE010596B8010E9446068985823040F028
:1007D0008989823028F0C701B8010E94BE0601C095
:1007E0008FEF6896E6E00C943015A8E1B0E0EBEFEF
:1007F000F3E00C94141569837A838B839C832D8397
:100800003E834F83588789E0E82EF12CEC0EFD1EC5
:10081000CE010196B7010E9446068E010F5E1F4F62
:10082000CE010596B8010E9446068985823040F0C7
:100830008989823028F0C701B8010E94BE0601C034
:100840008FEF6896E6E00C943015A8E1B0E0EBE29B
:10085000F4E00C94141569837A838B839C832D8335
:100860003E834F83588789E0E82EF12CEC0EFD1E65
:10087000CE010196B7010E9446068E010F5E1F4F02
:10088000CE010596B8010E9446068985823040F067
:100890008989823028F0C701B8010E94BE0601C0D4
:1008A00081E06896E6E00C943015ACE0B0E0EBE552
:1008B000F4E00C94181569837A838B839C83CE01B2
:1008C0000196BE016B5F7F4F0E9446068D8182308C
:1008D00061F1823050F1843021F48E81882351F10E
:1008E0002EC02F81388537FD20C06E812F31310514
:1008F0001CF06623F9F023C08EE190E0821B930B7D
:1009000029853A854B855C8504C056954795379572
:1009100027958A95D2F76623B1F05095409530958A
:1009200021953F4F4F4F5F4F0EC020E030E040E039
:1009300050E009C02FEF3FEF4FEF5FE704C020E02A
:1009400030E040E050E8B901CA012C96E2E00C9496
:100950003415A8E0B0E0EFEAF4E00C9410157B0148
:100960008C01611571058105910519F482E0898377
:1009700060C083E089838EE1C82ED12CDC82CB82DB
:10098000ED82FE820F831887C801B7010E942205FD
:10099000FC013197F7FF3BC0222733272E1B3F0B6B
:1009A00057016801022E04C0D694C794B794A79447
:1009B0000A94D2F740E050E060E070E081E090E01F
:1009C000A0E0B0E004C0880F991FAA1FBB1F2A95A2
:1009D000D2F70197A109B1098E219F21A023B1234C
:1009E0000097A105B10521F041E050E060E070E022
:1009F0004A295B296C297D294D835E836F83788723
:100A00008EE190E08E1B9F0B9C838B8312C03097EE
:100A100081F00E2E04C0EE0CFF1C001F111F0A9463
:100A2000D2F7ED82FE820F831887CE1ADF0ADC82AE
:100A3000CB821A82CE0101960E9471052896EAE0C7
:100A40000C942C15EF92FF920F931F937B018C0156
:100A500080E0E81680E0F80681E0080780E01807EB
:100A600088F48FEFE816F1040105110531F028F044
:100A700088E090E0A0E0B0E017C080E090E0A0E067
:100A8000B0E012C080E0E81680E0F80680E00807D9
:100A900081E0180728F088E190E0A0E0B0E004C011
:100AA00080E190E0A0E0B0E020E230E040E050E003
:100AB000281B390B4A0B5B0B04C016950795F7945E
:100AC000E7948A95D2F7F701E757FF4F8081281BFB
:100AD000310941095109C9011F910F91FF90EF9010
:100AE0000895DF92EF92FF920F931F93FC01E48031
:100AF000F58006811781D1808081823048F480E0C2
:100B000090E0A0E1B0E0E82AF92A0A2B1B2BA5C04F
:100B1000843009F49FC0823021F4EE24FF24870141
:100B200005C0E114F1040105110519F4E0E0F0E05D
:100B300096C0628173819FEF623879070CF05BC0C9
:100B400022E83FEF261B370B2A3131052CF020E03D
:100B500030E040E050E02AC0B801A701022E04C0F6
:100B600076956795579547950A94D2F781E090E07E
:100B7000A0E0B0E004C0880F991FAA1FBB1F2A95F0
:100B8000D2F70197A109B1098E219F21A023B1239A
:100B90000097A105B10521F081E090E0A0E0B0E070
:100BA0009A01AB01282B392B4A2B5B2BDA01C901A7
:100BB0008F779070A070B07080349105A105B10559
:100BC00039F427FF09C0205C3F4F4F4F5F4F04C0EF
:100BD000215C3F4F4F4F5F4FE0E0F0E02030A0E05E
:100BE0003A07A0E04A07A0E45A0710F0E1E0F0E07D
:100BF00079018A0127C06038710564F5FB01E1586D
:100C0000FF4FD801C7018F779070A070B07080340B
:100C10009105A105B10539F4E7FE0DC080E490E02F
:100C2000A0E0B0E004C08FE390E0A0E0B0E0E80E08
:100C3000F91E0A1F1B1F17FF05C016950795F7948D
:100C4000E794319687E016950795F794E7948A958F
:100C5000D1F705C0EE24FF248701EFEFF0E06E2FFF
:100C6000679566276795902F9F77D794DD24D79453
:100C70008E2F8695492F462B582F5D29B701CA0123
:100C80001F910F91FF90EF90DF900895FC01DB0121
:100C9000408151812281622F6F7770E0221F2227CD
:100CA000221F9381892F880F822B282F30E0991FD4
:100CB0009927991F11969C93119721153105A9F534
:100CC000411551056105710511F482E037C082E8D4
:100CD0009FEF13969C938E9312979A01AB0167E056
:100CE000220F331F441F551F6A95D1F783E08C9361
:100CF0000DC0220F331F441F551F12968D919C91DA
:100D00001397019713969C938E931297203080E04F
:100D1000380780E0480780E4580758F314962D936D
:100D20003D934D935C93179708952F3F310579F4C8
:100D3000411551056105710519F484E08C930895FE
:100D400064FF03C081E08C9312C01C9210C02F5727
:100D5000304013963C932E93129783E08C9387E058
:100D6000440F551F661F771F8A95D1F7706414963C
:100D70004D935D936D937C93179708951F93DC01BA
:100D8000FB019C91923008F447C08081823008F4C6
:100D900043C0943051F411961C91843099F58181AF
:100DA000682F70E0611B71093FC0843021F09230E0
:100DB00031F48230B9F18181882389F12DC01196F7
:100DC0001C9111978230F1F081811817D9F4129695
:100DD0002D913C911397828193818217930794F010
:100DE00028173907BCF014968D919D910D90BC91F8
:100DF000A02D2481358146815781281739074A075C
:100E00005B0718F4112341F00AC082179307A40767
:100E1000B50740F4112319F061E070E005C06FEFF1
:100E20007FEF02C060E070E0CB011F910895DF9377
:100E3000CF9300D0CDB7DEB79A838983E7E2F0E0A5
:100E40001082E6E2F0E01082A7E2B0E0E7E2F0E034
:100E50008081282F2F73E981FA818081882F90E08B
:100E60000024969587950794969587950794982FD3
:100E7000802D822B8C93A6E2B0E0E6E2F0E0808148
:100E800080688C93A6E2B0E0E6E2F0E08081982FE3
:100E9000987FE981FA818181892B8C93A6E2B0E069
:100EA000E6E2F0E08081877F8C930F900F90CF91E6
:100EB000DF910895DF93CF930F92CDB7DEB789838B
:100EC000898187708983A7E2B0E0E7E2F0E0808162
:100ED000807E8C93A7E2B0E0E7E2F0E09081898128
:100EE000892B8C93A6E2B0E0E6E2F0E0808180649A
:100EF0008C93E6E2F0E08081882F90E08071907022
:100F00000097B9F3A6E2B0E0E6E2F0E0808180610C
:100F10008C93E4E2F0E0808191810F90CF91DF919A
:100F20000895DF93CF93CDB7DEB781E060E041E075
:100F30000E94F60781E061E041E00E94F60781E04F
:100F400060E040E00E94E10881E061E040E00E9452
:100F5000E108CF91DF910895DF93CF9300D000D0C7
:100F6000CDB7DEB78B836C83A8E3B0E0E8E3F0E0B5
:100F700090818B81892B8C938C81843629F480E03D
:100F800091E09A8389831DC08C818B3429F480EC95
:100F900090E09A83898315C08C81823329F480E89C
:100FA00090E09A8389830DC08C81893129F480E493
:100FB00090E09A83898305C08C81882311F41A827A
:100FC000198289819A81009731F4E8E3F0E0A8E37F
:100FD000B0E08C91808389819A810E94EB130F90FD
:100FE0000F900F900F90CF91DF910895DF93CF93E3
:100FF00000D000D00F92CDB7DEB789836A834B83D0
:101000008981843008F0D5C08A81883008F0D1C049
:101010008981282F30E03D832C838C819D81813014
:10102000910509F443C02C813D81223031052CF417
:101030008C819D81009771F0BCC02C813D81223054
:10104000310509F45FC08C819D818330910509F4DD
:1010500085C0AFC08B818130A1F4AAE3B0E0EAE3A0
:10106000F0E08081482F8A81282F30E081E090E0F5
:10107000022E02C0880F991F0A94E2F7842B8C93EA
:1010800098C0AAE3B0E0EAE3F0E08081482F8A81CB
:10109000282F30E081E090E0022E02C0880F991FD7
:1010A0000A94E2F7809584238C9383C08B818130EE
:1010B000A1F4A7E3B0E0E7E3F0E08081482F8A8164
:1010C000282F30E081E090E0022E02C0880F991FA7
:1010D0000A94E2F7842B8C936CC0A7E3B0E0E7E3BB
:1010E000F0E08081482F8A81282F30E081E090E075
:1010F000022E02C0880F991F0A94E2F7809584237C
:101100008C9357C08B818130A1F4A4E3B0E0E4E379
:10111000F0E08081482F8A81282F30E081E090E044
:10112000022E02C0880F991F0A94E2F7842B8C9339
:1011300040C0A4E3B0E0E4E3F0E08081482F8A817E
:10114000282F30E081E090E0022E02C0880F991F26
:101150000A94E2F7809584238C932BC08B81813095
:10116000A1F4A1E3B0E0E1E3F0E08081482F8A81BF
:10117000282F30E081E090E0022E02C0880F991FF6
:101180000A94E2F7842B8C9314C0A4E3B0E0E4E368
:10119000F0E08081482F8A81282F30E081E090E0C4
:1011A000022E02C0880F991F0A94E2F780958423CB
:1011B0008C930F900F900F900F900F90CF91DF9125
:1011C0000895DF93CF9300D000D00F92CDB7DEB754
:1011D00089836A834B838981843008F0D5C08A81F2
:1011E000883008F0D1C08981282F30E03D832C83DE
:1011F0008C819D818130910509F443C02C813D8112
:10120000223031052CF48C819D81009771F0BCC097
:101210002C813D812230310509F45FC08C819D8194
:101220008330910509F485C0AFC08B818130A1F472
:10123000ABE3B0E0EBE3F0E08081482F8A81282F18
:1012400030E081E090E0022E02C0880F991F0A94DE
:10125000E2F7842B8C9398C0ABE3B0E0EBE3F0E0D3
:101260008081482F8A81282F30E081E090E0022E93
:1012700002C0880F991F0A94E2F7809584238C930B
:1012800083C08B818130A1F4A8E3B0E0E8E3F0E013
:101290008081482F8A81282F30E081E090E0022E63
:1012A00002C0880F991F0A94E2F7842B8C936CC0BC
:1012B000A8E3B0E0E8E3F0E08081482F8A81282F9E
:1012C00030E081E090E0022E02C0880F991F0A945E
:1012D000E2F7809584238C9357C08B818130A1F4F1
:1012E000A5E3B0E0E5E3F0E08081482F8A81282F74
:1012F00030E081E090E0022E02C0880F991F0A942E
:10130000E2F7842B8C9340C0A5E3B0E0E5E3F0E086
:101310008081482F8A81282F30E081E090E0022EE2
:1013200002C0880F991F0A94E2F7809584238C935A
:101330002BC08B818130A1F4A2E3B0E0E2E3F0E0C6
:101340008081482F8A81282F30E081E090E0022EB2
:1013500002C0880F991F0A94E2F7842B8C9314C063
:10136000A2E3B0E0E2E3F0E08081482F8A81282FF9
:1013700030E081E090E0022E02C0880F991F0A94AD
:10138000E2F7809584238C930F900F900F900F902D
:101390000F90CF91DF910895DF93CF9300D000D0CD
:1013A0000F92CDB7DEB78A836B8319828A8184302E
:1013B00008F084C08B81883008F080C08A81282F93
:1013C00030E03D832C834C815D814130510579F1C2
:1013D0008C819D818230910534F42C813D812115D1
:1013E000310569F06BC04C815D8142305105B9F126
:1013F0008C819D818330910509F449C05FC0E9E388
:10140000F0E08081282F30E08B81882F90E0A901C7
:1014100002C0559547958A95E2F7CA018170907090
:10142000882319F081E0898349C0198247C0E6E327
:10143000F0E08081282F30E08B81882F90E0A90197
:1014400002C0559547958A95E2F7CA018170907060
:10145000882319F081E0898331C019822FC0E3E32A
:10146000F0E08081282F30E08B81882F90E0A90167
:1014700002C0559547958A95E2F7CA018170907030
:10148000882319F081E0898319C0198217C0E0E32D
:10149000F0E08081282F30E08B81882F90E0A90137
:1014A00002C0559547958A95E2F7CA018170907000
:1014B000882319F081E0898301C0198289810F9006
:1014C0000F900F900F900F90CF91DF910895DF93C1
:1014D000CF9300D000D0CDB7DEB789836A838981EE
:1014E000843090F58981282F30E03C832B838B81D9
:1014F0009C8181309105D1F02B813C8122303105D6
:101500002CF48B819C81009761F01EC02B813C8163
:101510002230310581F08B819C818330910581F0EF
:1015200013C0EAE3F0E08A8180830EC0E7E3F0E0D5
:101530008A81808309C0E4E3F0E08A81808304C06B
:10154000E1E3F0E08A8180830F900F900F900F907D
:10155000CF91DF910895DF93CF9300D000D0CDB726
:10156000DEB789836A838981843090F58981282F49
:1015700030E03C832B838B819C8181309105D1F0BD
:101580002B813C81223031052CF48B819C8100978A
:1015900061F01EC02B813C812230310581F08B81AE
:1015A0009C818330910581F013C0EBE3F0E08A81E8
:1015B00080830EC0E8E3F0E08A81808309C0E5E320
:1015C000F0E08A81808304C0E2E3F0E08A818083D6
:1015D0000F900F900F900F90CF91DF910895DF93B0
:1015E000CF9300D000D0CDB7DEB78A8319828A812D
:1015F000843090F58A81282F30E03C832B838B81C7
:101600009C8181309105D1F02B813C8122303105C4
:101610002CF48B819C81009761F01EC02B813C8152
:101620002230310581F08B819C818330910581F0DE
:1016300013C0E9E3F0E0808189830EC0E6E3F0E0C7
:101640008081898309C0E3E3F0E08081898304C05D
:10165000E0E3F0E08081898389810F900F900F9003
:101660000F90CF91DF9108950F931F93DF93CF9346
:10167000CDB7DEB7C156D0400FB6F894DEBF0FBE6F
:10168000CDBFFE01EF59FF4F808383E060E040E073
:101690000E94E108FE01E35AFF4F80E090E0A0E8DD
:1016A000BFE380839183A283B3838E01075A1F4FC8
:1016B000FE01E35AFF4F60817181828193812BEAA1
:1016C0003AEA4AEA5EE30E941F02DC01CB01F8011C
:1016D00080839183A283B383FE01E75AFF4F608129
:1016E00071818281938120E030E040E85FE30E94D5
:1016F0002504882334F4FE01E85AFF4F81E08083FB
:10170000E0C0FE01E75AFF4F6081718182819381C1
:1017100020E030E04FE753E40E94C50318160CF0B8
:10172000C0C0FE01E35AFF4F6081718182819381C5
:1017300020E030E04AE754E40E941903DC01CB01C9
:10174000FE01EC5AFF4F80839183A283B3838E0105
:10175000005B1F4FFE01EC5AFF4F60817181828157
:10176000938120E030E04AE753E40E941F02DC014D
:10177000CB01F80180839183A283B383FE01E05BF8
:10178000FF4F608171818281938120E030E040E8E9
:101790005FE30E942504882344F4FE01E25BFF4FCF
:1017A00081E090E09183808364C0FE01E05BFF4FA5
:1017B000608171818281938120E03FEF4FE757E4A0
:1017C0000E94C50318160CF043C0FE01EC5AFF4FEF
:1017D000608171818281938120E030E040E251E4B8
:1017E0000E941F02DC01CB018E01025B1F4FBC0176
:1017F000CD010E944900DC01CB01F8019183808377
:101800001FC0FE01E45BFF4F89E190E0918380837C
:10181000FE01E45BFF4F808191810197F1F7FE01AA
:10182000E45BFF4F91838083DE01A25BBF4FFE012B
:10183000E25BFF4F80819181019711969C938E937B
:10184000FE01E25BFF4F808191810097D1F64BC092
:101850008E01025B1F4FFE01E05BFF4F60817181D3
:10186000828193810E944900DC01CB01F8019183C0
:101870008083DE01A65BBF4FFE01E25BFF4F8081EC
:10188000918111969C938E93FE01E65BFF4F8081C0
:1018900091810197F1F7FE01E65BFF4F9183808311
:1018A00022C08E01085A1F4FFE01E75AFF4F608188
:1018B0007181828193810E944900DC01CB01F80192
:1018C0008083DE01A75BBF4FFE01E85AFF4F808196
:1018D0008C93FE01E75BFF4F80818A95F1F7FE0153
:1018E000E75BFF4F808383E062E041E00E94E10814
:1018F000FE01EB5BFF4F80E090E0A0E8BFE3808358
:101900009183A283B3838E010F5B1F4FFE01EB5BBC
:10191000FF4F60817181828193812BEA3AEA4AEA22
:101920005EE30E941F02DC01CB01F80180839183FA
:10193000A283B383FE01EF5BFF4F608171818281DF
:10194000938120E030E040E85FE30E942504882393
:1019500034F481E0FE01E05CFF4F80839DC0FE0116
:10196000EF5BFF4F608171818281938120E030E0E5
:101970004FE753E40E94C50318160CF07EC0FE0129
:10198000EB5BFF4F608171818281938120E030E0C9
:101990004AE754E40E941903DC01CB018CAF9DAFF0
:1019A000AEAFBFAF6CAD7DAD8EAD9FAD20E030E092
:1019B0004AE753E40E941F02DC01CB0188AF99AFD4
:1019C000AAAFBBAF68AD79AD8AAD9BAD20E030E08A
:1019D00040E85FE30E94250488232CF481E090E036
:1019E0009FAB8EAB3FC068AD79AD8AAD9BAD20E0BB
:1019F0003FEF4FE757E40E94C50318164CF56CAD56
:101A00007DAD8EAD9FAD20E030E040E251E40E941C
:101A10001F02DC01CB01BC01CD010E944900DC01A9
:101A2000CB019FAB8EAB0FC089E190E09DAB8CAB3F
:101A30008CA99DA90197F1F79DAB8CAB8EA99FA9AD
:101A400001979FAB8EAB8EA99FA9009769F72DC018
:101A500068AD79AD8AAD9BAD0E944900DC01CB0138
:101A60009FAB8EAB8EA99FA99BAB8AAB8AA99BA982
:101A70000197F1F79BAB8AAB18C0FE01EF5BFF4FFC
:101A800060817181828193810E944900DC01CB01D8
:101A9000FE01E05CFF4F8083FE01E05CFF4F808130
:101AA00089AB89A98A95F1F789ABFE01EF59FF4F00
:101AB00082E060810E94AB0A80E090E0A0E8BFE392
:101AC0008DA79EA7AFA7B8AB6DA57EA58FA598A93A
:101AD0002BEA3AEA4AEA5EE30E941F02DC01CB01EC
:101AE00089A79AA7ABA7BCA769A57AA58BA59CA532
:101AF00020E030E040E85FE30E94250488231CF4E6
:101B000081E088A791C069A57AA58BA59CA520E056
:101B100030E04FE753E40E94C50318160CF07BC079
:101B20006DA57EA58FA598A920E030E04AE754E492
:101B30000E941903DC01CB018CA39DA3AEA3BFA31C
:101B40006CA17DA18EA19FA120E030E04AE753E483
:101B50000E941F02DC01CB0188A399A3AAA3BBA307
:101B600068A179A18AA19BA120E030E040E85FE371
:101B70000E94250488232CF481E090E09F8F8E8FB3
:101B80003FC068A179A18AA19BA120E03FEF4FE768
:101B900057E40E94C50318164CF56CA17DA18EA1D7
:101BA0009FA120E030E040E251E40E941F02DC01EE
:101BB000CB01BC01CD010E944900DC01CB019F8F0C
:101BC0008E8F0FC089E190E09D8F8C8F8C8D9D8DC5
:101BD0000197F1F79D8F8C8F8E8D9F8D01979F8F31
:101BE0008E8F8E8D9F8D009769F724C068A179A193
:101BF0008AA19BA10E944900DC01CB019F8F8E8F9F
:101C00008E8D9F8D9B8F8A8F8A8D9B8D0197F1F78B
:101C10009B8F8A8F0FC069A57AA58BA59CA50E9472
:101C20004900DC01CB0188A788A5898F898D8A9519
:101C3000F1F7898F83E062E040E00E94E10880E0F4
:101C400090E0A0E8BFE38D8B9E8BAF8BB88F6D8942
:101C50007E898F89988D2BEA3AEA4AEA5EE30E94F0
:101C60001F02DC01CB01898B9A8BAB8BBC8B698902
:101C70007A898B899C8920E030E040E85FE30E940C
:101C8000250488231CF481E0888B91C069897A89B6
:101C90008B899C8920E030E04FE753E40E94C50324
:101CA00018160CF07BC06D897E898F89988D20E095
:101CB00030E04AE754E40E941903DC01CB018C8731
:101CC0009D87AE87BF876C857D858E859F8520E04B
:101CD00030E04AE753E40E941F02DC01CB01888711
:101CE0009987AA87BB87688579858A859B8520E047
:101CF00030E040E85FE30E94250488232CF481E073
:101D000090E09F838E833FC0688579858A859B8517
:101D100020E03FEF4FE757E40E94C50318164CF54B
:101D20006C857D858E859F8520E030E040E251E422
:101D30000E941F02DC01CB01BC01CD010E944900C1
:101D4000DC01CB019F838E830FC089E190E09D83EE
:101D50008C838C819D810197F1F79D838C838E818B
:101D60009F8101979F838E838E819F81009769F762
:101D700024C0688579858A859B850E944900DC019D
:101D8000CB019F838E838E819F819B838A838A81EF
:101D90009B810197F1F79B838A830FC069897A89B8
:101DA0008B899C890E944900DC01CB01888B888942
:101DB000898389818A95F1F78983CF59DF4F0FB6DF
:101DC000F894DEBF0FBECDBFCF91DF911F910F9171
:101DD00008950F931F93DF93CF93CDB7DEB7C1560E
:101DE000D0400FB6F894DEBF0FBECDBFFE01EF5955
:101DF000FF4F808383E060E041E00E94E108FE0144
:101E0000E35AFF4F80E090E0A0E8BFE38083918336
:101E1000A283B3838E01075A1F4FFE01E35AFF4F7F
:101E200060817181828193812BEA3AEA4AEA5EE31A
:101E30000E941F02DC01CB01F80180839183A28301
:101E4000B383FE01E75AFF4F6081718182819381E4
:101E500020E030E040E85FE30E942504882334F46A
:101E6000FE01E85AFF4F81E08083E0C0FE01E75A9F
:101E7000FF4F608171818281938120E030E04FE7E4
:101E800053E40E94C50318160CF0C0C0FE01E35ACB
:101E9000FF4F608171818281938120E030E04AE7C9
:101EA00054E40E941903DC01CB01FE01EC5AFF4F00
:101EB00080839183A283B3838E01005B1F4FFE0159
:101EC000EC5AFF4F608171818281938120E030E084
:101ED0004AE753E40E941F02DC01CB01F801808332
:101EE0009183A283B383FE01E05BFF4F6081718128
:101EF0008281938120E030E040E85FE30E94250486
:101F0000882344F4FE01E25BFF4F81E090E091837F
:101F1000808364C0FE01E05BFF4F6081718182813C
:101F2000938120E03FEF4FE757E40E94C503181666
:101F30000CF043C0FE01EC5AFF4F60817181828139
:101F4000938120E030E040E251E40E941F02DC0176
:101F5000CB018E01025B1F4FBC01CD010E944900E5
:101F6000DC01CB01F801918380831FC0FE01E45B9B
:101F7000FF4F89E190E091838083FE01E45BFF4F96
:101F8000808191810197F1F7FE01E45BFF4F91831E
:101F90008083DE01A25BBF4FFE01E25BFF4F8081C9
:101FA0009181019711969C938E93FE01E25BFF4F06
:101FB000808191810097D1F64BC08E01025B1F4F4B
:101FC000FE01E05BFF4F60817181828193810E94FD
:101FD0004900DC01CB01F80191838083DE01A65B1F
:101FE000BF4FFE01E25BFF4F8081918111969C9370
:101FF0008E93FE01E65BFF4F808191810197F1F79F
:10200000FE01E65BFF4F9183808322C08E01085A58
:102010001F4FFE01E75AFF4F6081718182819381DA
:102020000E944900DC01CB01F8018083DE01A75B3F
:10203000BF4FFE01E85AFF4F80818C93FE01E75BA2
:10204000FF4F80818A95F1F7FE01E75BFF4F8083A8
:1020500083E062E041E00E94E108FE01EB5BFF4F9C
:1020600080E090E0A0E8BFE380839183A283B38304
:102070008E010F5B1F4FFE01EB5BFF4F6081718193
:10208000828193812BEA3AEA4AEA5EE30E941F02C8
:10209000DC01CB01F80180839183A283B383FE012D
:1020A000EF5BFF4F608171818281938120E030E09E
:1020B00040E85FE30E942504882334F481E0FE01B8
:1020C000E05CFF4F80839DC0FE01EF5BFF4F6081AE
:1020D00071818281938120E030E04FE753E40E94D8
:1020E000C50318160CF07EC0FE01EB5BFF4F60814C
:1020F00071818281938120E030E04AE754E40E94BC
:102100001903DC01CB018CAF9DAFAEAFBFAF6CAD9F
:102110007DAD8EAD9FAD20E030E04AE753E40E94F4
:102120001F02DC01CB0188AF99AFAAAFBBAF68AD8E
:1021300079AD8AAD9BAD20E030E040E85FE30E94DE
:10214000250488232CF481E090E09FAB8EAB3FC048
:1021500068AD79AD8AAD9BAD20E03FEF4FE757E426
:102160000E94C50318164CF56CAD7DAD8EAD9FADCC
:1021700020E030E040E251E40E941F02DC01CB018C
:10218000BC01CD010E944900DC01CB019FAB8EABAD
:102190000FC089E190E09DAB8CAB8CA99DA9019704
:1021A000F1F79DAB8CAB8EA99FA901979FAB8EAB2E
:1021B0008EA99FA9009769F72DC068AD79AD8AAD4A
:1021C0009BAD0E944900DC01CB019FAB8EAB8EA979
:1021D0009FA99BAB8AAB8AA99BA90197F1F79BABFF
:1021E0008AAB18C0FE01EF5BFF4F60817181828175
:1021F00093810E944900DC01CB01FE01E05CFF4FAE
:102200008083FE01E05CFF4F808189AB89A98A95BC
:10221000F1F789ABFE01EF59FF4F82E060810E9428
:10222000AB0A80E090E0A0E8BFE38DA79EA7AFA730
:10223000B8AB6DA57EA58FA598A92BEA3AEA4AEA24
:102240005EE30E941F02DC01CB0189A79AA7ABA71E
:10225000BCA769A57AA58BA59CA520E030E040E845
:102260005FE30E94250488231CF481E088A791C0C5
:1022700069A57AA58BA59CA520E030E04FE753E443
:102280000E94C50318160CF07BC06DA57EA58FA516
:1022900098A920E030E04AE754E40E941903DC01E9
:1022A000CB018CA39DA3AEA3BFA36CA17DA18EA1E6
:1022B0009FA120E030E04AE753E40E941F02DC01C6
:1022C000CB0188A399A3AAA3BBA368A179A18AA1E2
:1022D0009BA120E030E040E85FE30E9425048823D2
:1022E0002CF481E090E09F8F8E8F3FC068A179A190
:1022F0008AA19BA120E03FEF4FE757E40E94C5036E
:1023000018164CF56CA17DA18EA19FA120E030E0B4
:1023100040E251E40E941F02DC01CB01BC01CD016F
:102320000E944900DC01CB019F8F8E8F0FC089E195
:1023300090E09D8F8C8F8C8D9D8D0197F1F79D8FF7
:102340008C8F8E8D9F8D01979F8F8E8F8E8D9F8D01
:10235000009769F724C068A179A18AA19BA10E9476
:102360004900DC01CB019F8F8E8F8E8D9F8D9B8FBF
:102370008A8F8A8D9B8D0197F1F79B8F8A8F0FC073
:1023800069A57AA58BA59CA50E944900DC01CB011B
:1023900088A788A5898F898D8A95F1F7898F83E031
:1023A00062E040E00E94E10880E090E0A0E8BFE346
:1023B0008D8B9E8BAF8BB88F6D897E898F89988D21
:1023C0002BEA3AEA4AEA5EE30E941F02DC01CB01F3
:1023D000898B9A8BAB8BBC8B69897A898B899C8919
:1023E00020E030E040E85FE30E94250488231CF4ED
:1023F00081E0888B91C069897A898B899C8920E0EA
:1024000030E04FE753E40E94C50318160CF07BC080
:102410006D897E898F89988D20E030E04AE754E409
:102420000E941903DC01CB018C879D87AE87BF8793
:102430006C857D858E859F8520E030E04AE753E4FA
:102440000E941F02DC01CB0188879987AA87BB877E
:10245000688579858A859B8520E030E040E85FE3E8
:102460000E94250488232CF481E090E09F838E83D2
:102470003FC0688579858A859B8520E03FEF4FE7DF
:1024800057E40E94C50318164CF56C857D858E8532
:102490009F8520E030E040E251E40E941F02DC0111
:1024A000CB01BC01CD010E944900DC01CB019F831F
:1024B0008E830FC089E190E09D838C838C819D8108
:1024C0000197F1F79D838C838E819F8101979F8374
:1024D0008E838E819F81009769F724C068857985F6
:1024E0008A859B850E944900DC01CB019F838E83F6
:1024F0008E819F819B838A838A819B810197F1F7DB
:102500009B838A830FC069897A898B899C890E9401
:102510004900DC01CB01888B8889898389818A9570
:10252000F1F78983CF59DF4F0FB6F894DEBF0FBEA6
:10253000CDBFCF91DF911F910F910895DF93CF937E
:10254000CDB7DEB72E970FB6F894DEBF0FBECDBF66
:1025500083E060E041E00E94F60783E062E041E052
:102560000E94F60782E06FEF0E94670A80E090E029
:10257000A0EAB1E48B879C87AD87BE876B857C859D
:102580008D859E8520E030E04AE753E40E941F02DB
:10259000DC01CB018F839887A987BA876F81788503
:1025A00089859A8520E030E040E85FE30E942504B9
:1025B00088232CF481E090E09E838D833FC06F815F
:1025C000788589859A8520E03FEF4FE757E40E94A0
:1025D000C50318164CF56B857C858D859E8520E09E
:1025E00030E040E251E40E941F02DC01CB01BC015B
:1025F000CD010E944900DC01CB019E838D830FC079
:1026000089E190E09C838B838B819C810197F1F71A
:102610009C838B838D819E8101979E838D838D8189
:102620009E81009769F714C06F81788589859A85A6
:102630000E944900DC01CB019E838D838D819E81A8
:102640009A83898389819A810197F1F79A83898393
:1026500088E30E94340B8CE00E94340B81E00E94DE
:10266000340B2E960FB6F894DEBF0FBECDBFCF91C0
:10267000DF910895DF93CF9300D00F92CDB7DEB7EF
:102680009B838A8319820EC08981282F30E08A813A
:102690009B81FC01E20FF31F80810E94E90E89817A
:1026A0008F5F89838981282F30E08A819B81FC019B
:1026B000E20FF31F8081882339F70F900F900F905E
:1026C000CF91DF910895DF93CF9300D000D00F9288
:1026D000CDB7DEB78A836B838A81282F30E03D83B4
:1026E0002C838C819D8181309105C1F02C813D81AD
:1026F000223031052CF48C819D81009761F019C046
:102700002C813D812230310569F08C819D8183309F
:10271000910561F00EC08B8189830BC08B81805C39
:10272000898307C08B81805F898303C08B81805B35
:102730008983898180680E94340B0F900F900F90DD
:102740000F900F90CF91DF910895DF93CF9300D03A
:1027500000D0CDB7DEB789836A835C834B838981E0
:102760006A810E9463138B819C810E943A130F90AF
:102770000F900F900F90CF91DF910895DF93CF933B
:10278000CDB7DEB762970FB6F894DEBF0FBECDBFF0
:102790009A8B898B89899A899E012F5F3F4FB90156
:1027A0004AE050E00E943F15CE0101960E943A1384
:1027B00062960FB6F894DEBF0FBECDBFCF91DF910A
:1027C0000895DF93CF93CDB7DEB781E00E94340B3D
:1027D000CF91DF910895DF93CF9300D0CDB7DEB7CF
:1027E0009A838983E2E5F0E01082ECE5F0E08981EC
:1027F000808381E063E041E00E94F607A3E5B0E05A
:10280000E3E5F0E0808180648C93A3E5B0E0E3E54C
:10281000F0E0808188608C93A3E5B0E0E3E5F0E030
:10282000808180628C93A3E5B0E0E3E5F0E08081F5
:1028300082608C930F900F90CF91DF910895DF937A
:10284000CF9300D00F92CDB7DEB71B821A821982C8
:1028500082E00E945A079A83898389819A81CC01F8
:10286000A0E0B0E026E930E040E050E0BC01CD015E
:102870000E94E914DC01CB01BC01CD010E94A90436
:10288000DC01CB01BC01CD012AE037ED43E250E48D
:102890000E941F02DC01CB01BC01CD0120E030ED24
:1028A0004FEB54E40E941903DC01CB01BC01CD01C4
:1028B0000E944900DC01CB018B838B810F900F902C
:1028C0000F90CF91DF910895DF93CF9300D000D088
:1028D0000F92CDB7DEB783E08C8383E08D830E94B7
:1028E0009E12CE0104960E9417070E94910780E075
:1028F00063E00E94631380E690E00E943A1381E057
:1029000063E00E94631389E690E00E943A130E94FC
:102910001F148B838B818E3118F41A82198228C080
:102920008B818E3140F08B818C3328F489E18A834E
:1029300081E089831DC08B818C3340F08B818A3587
:1029400028F482E38A8381E0898312C08B818A35EF
:1029500040F08B81883728F48BE48A8381E0898377
:1029600007C08B81883720F084E68A8381E08983E1
:1029700089816A810E94AC078981813019F089813F
:10298000823049F480E06BE00E94631381E790E0BD
:102990000E943A1308C080E06BE00E94631388E74E
:1029A00090E00E943A1381E06AE00E9463138B81F9
:1029B000843630F08B81882F90E00E94BE13A7CF21
:1029C0008B81882F90E00E94BE1380E20E94E90E66
:1029D0009ECF629FD001739FF001829FE00DF11D99
:1029E000649FE00DF11D929FF00D839FF00D749F89
:1029F000F00D659FF00D9927729FB00DE11DF91F35
:102A0000639FB00DE11DF91FBD01CF011124089591
:102A10002F923F924F925F926F927F928F929F92EE
:102A2000AF92BF92CF92DF92EF92FF920F931F93DC
:102A3000CF93DF93CDB7DEB7CA1BDB0B0FB6F8948D
:102A4000DEBF0FBECDBF09942A88398848885F84CD
:102A50006E847D848C849B84AA84B984C884DF803E
:102A6000EE80FD800C811B81AA81B981CE0FD11D22
:102A70000FB6F894DEBF0FBECDBFED010895FB0188
:102A80009F01E8944230C4F04532B4F44A3029F44E
:102A900097FB1EF4909581959F4F642F77270E9496
:102AA0007015805D8A330CF0895D8193CB010097AE
:102AB000A1F716F45DE251931082C9010C946015E0
:102AC000DC01FC01672F71917723E1F7329704C095
:102AD0007C916D9370836291AE17BF07C8F3089520
:102AE000AA1BBB1B51E107C0AA1FBB1FA617B70734
:102AF00010F0A61BB70B881F991F5A95A9F7809550
:0C2B00009095BC01CD010895F894FFCF22
:102B0C0046616E20697320200054656D70203D2055
:102B1C00004F4E20202020004F4646202020202011
:102B2C00000000000000000000000102020303038B
:102B3C000304040404040404040505050505050543
:102B4C000505050505050505050606060606060622
:102B5C000606060606060606060606060606060609
:102B6C0006060606060606060607070707070707F2
:102B7C0007070707070707070707070707070707D9
:102B8C0007070707070707070707070707070707C9
:102B9C0007070707070707070707070707070707B9
:102BAC0007070707070707070708080808080808A2
:102BBC000808080808080808080808080808080889
:102BCC000808080808080808080808080808080879
:102BDC000808080808080808080808080808080869
:102BEC000808080808080808080808080808080859
:102BFC000808080808080808080808080808080849
:102C0C000808080808080808080808080808080838
:102C1C000808080808080808080808080808080828
:0A2C2C000808080808080808080056
:00000001FF
